:1000000095C00000AFC00000ADC00000ABC0000054
:10001000A9C00000A7C00000A5C00000A3C0000048
:10002000A1C000009FC000009DC000004BC60000A2
:10003000F5C6000097C0000095C0000093C0000006
:1000400091C000008FC000008DC000008BC0000078
:1000500089C0000087C0000085C00000E6C1000024
:1000600081C000007FC000007DC000007BC0000098
:1000700079C000002E034100720064007500690021
:100080006E006F00200044007500650020005000E5
:1000900072006F0067002E00200050006F00720099
:1000A00074000000320341007200640075006900B2
:1000B0006E006F00200028007700770077002E0088
:1000C000610072006400750069006E006F002E0010
:1000D00063006300290000000403090409023E00D4
:1000E000020100C0320904000001020201000524DF
:1000F00000100104240206052406000107058203FE
:100100000800FF09040100020A00000007050402BC
:1001100010000507058302100005120110010200FE
:10012000000841233D0000020102DC0111241FBE32
:10013000CFEFD2E0DEBFCDBF11E0A0E0B1E0E2E55D
:10014000F5E102C005900D92AC31B107D9F722E07C
:10015000ACE1B1E001C01D92AD34B207E1F737D098
:100160000C94A70A4DCF3F984798089584B7877F8E
:1001700084BF88E10FB6F89480936000109260000D
:100180000FBE90E080E80FB6F894809361009093E2
:1001900061000FBEE8DF469A3E9A87E690E09093B2
:1001A000CD008093CC0086E08093CA001092C800F6
:1001B00088E18093C900539A5A9A8AB180638AB9B8
:1001C0008BB180638BB96FD584E085BD0895CEDF98
:1001D00083E3E82E82E0F82EF7012FB7F89483EB43
:1001E00091E091838083938382839583848383E3E7
:1001F00092E09783868380E890E0918780871386DA
:1002000012862FBF07EA11E0F8012FB7F89487E2B2
:1002100091E091838083938382839583848387EAAB
:1002200091E09783868380E890E0918780871386AA
:1002300012862FBF8BB180638BB9789492E0D92E50
:100240008FB7F89420913D0230913E028FBF80918C
:100250003B0290913C0228173907E9F080E091E0D9
:100260000E94830997FD17C0F701A081B1818C938B
:1002700080819181019691838083268137818217C5
:10028000930709F4C7C02FB7F89482859385019628
:10029000938782872FBF2FB7F8948091B1019091F7
:1002A000B2012FBFA89941C08136910508F478C0EA
:1002B000A89A5D98D0923F02209101012F7020935F
:1002C000E9002091E80020FF34C08031910510F052
:1002D0008FE090E0C82E882361F1C0E0D0E00BC031
:1002E0002FB7F894828593850197938782872FBFD4
:1002F0002196CC16F1F0E091A901F091AA0160815C
:1003000080E091E08FD7811114C0F8018281938140
:10031000019693838283268137818217930701F7A1
:100320008481958193838283DBCFA89A009709F01B
:10033000C0CF80913F02882341F080913F028150DD
:1003400080933F02811101C05D9A80914002882311
:1003500041F080914002815080934002811101C0A0
:100360005C9A8091250190912601181619060CF0CF
:1003700049C0CC97CD9708F043C04698809125019D
:10038000909126010197C297C8F53F9A47988091AE
:1003900025019091260101979093260180932501D4
:1003A0008091C80085FF25C02FB7F89480913D0249
:1003B00090913E022FBF892BE1F0F701A281B3811A
:1003C0002D91B383A28386819781A817B907E9F09D
:1003D0003FB7F894828593850197938782873FBFC3
:1003E0008091C80085FFFCCF2093CE005C98D0920E
:1003F000400280E091E071D7CBD622CFB4DEC7CFE8
:10040000469ABCCF469AAFDECBCF84819581938349
:100410008283DECF848195819183808334CF80E095
:1004200091E0DBC680E091E0A0C71F920F920FB66B
:100430000F9211242F933F934F938F939F93AF93DA
:10044000BF93EF93FF934091CE008EB3843071F051
:10045000FF91EF91BF91AF919F918F914F913F91FC
:100460002F910F900FBE0F901F9018958FB7F89493
:100470002091B1013091B2018FBF8091AF01909175
:10048000B0012817390721F3E7EAF1E0A081B18133
:100490004C9380819181019691838083268137815D
:1004A0008217930749F02FB7F894828593850196B8
:1004B000938782872FBFCCCF84819581918380835E
:1004C000F2CFCF93FC01818D813009F46BC0823073
:1004D00009F453C036E024E092E07EE06CE05AE09C
:1004E00048E0C0E0808D823009F453C0828D8730AF
:1004F00009F456C0883009F45EC0863009F4C92F6B
:100500005B9A1092C9001092C8001092CA00248908
:1005100035894689578920932101309322014093E0
:1005200023015093240181E0203B94E039074105E9
:10053000510509F080E080931C01DA01C90157FDE3
:100540003CC0BC01CD01959587957795679560581E
:100550007B47814E9F4FD9D7215031093093CD0031
:100560002093CC00C093CA0082E08093C80088E941
:100570008093C9005B98CF91089536E224E292E21D
:100580007EE26CE25AE248E2C0E2808D823009F0FD
:10059000ADCF9B01952FC42F828D873009F0AACF54
:1005A000C22FAECF36E324E392E37EE36CE35AE35B
:1005B00048E3C0E397CFC32FA3CF0196A11DB11D80
:1005C000C0CF2091200120931F0120911E01209374
:1005D0001D01FC018089982F9170909320018695D0
:1005E000817080931E0180911C01882331F088E77F
:1005F00090E090932601809325010895292F3327B9
:100600002230310529F12330310599F021303105AF
:1006100041F080E090E020E030E0FA013183208377
:10062000089582E190E02AE131E0FA0131832083EC
:10063000089599278130910599F082309105B1F0A4
:10064000892B39F7E8EDF0E0849190E09F01E5CF48
:100650008EE390E02CED30E0FA01318320830895A1
:10066000E4EAF0E0849190E09F01D7CFE4E7F0E086
:10067000849190E09F01D1CF20914B0230914C02A8
:100680002617370758F06115710509F043C020910E
:10069000E8002E772093E80020E030E0FC0180E0C5
:1006A0002115310521F581110FC02EC08530A1F132
:1006B0008091E80083FD32C08091E80082FD24C073
:1006C0008091E80080FDBCC08EB38111EFCF82E045
:1006D0000895853009F18091E80083FD1FC0809165
:1006E000E80082FD11C08091E80080FD19C08EB342
:1006F0008111EFCFECCF8EB3882349F3853061F0C1
:100700008091E80083FD0AC08091E80082FFF3CF6A
:1007100080E008959B01C2CF83E0089581E00895B1
:100720008091F20090E08830910508F0AAC0DF01C6
:100730004D914093F100B90161507109AC014F5FD7
:100740005F4F6115710509F486C04830510509F401
:100750007EC041814093F100DF011296B9016250E1
:100760007109AC014E5F5F4F6115710509F473C0EB
:100770004830510509F46BC042814093F100DF011C
:100780001396B90163507109AC014D5F5F4F61155C
:10079000710509F460C04830510509F458C043811F
:1007A0004093F100DF011496B90164507109AC0166
:1007B0004C5F5F4F6115710509F44DC0483051051C
:1007C00009F445C044814093F100DF011596B90159
:1007D00065507109AC014B5F5F4F61157105D9F12F
:1007E00048305105A1F145814093F100DF01169693
:1007F000B90166507109AC014A5F5F4F611571051F
:1008000051F14830510519F146814093F100BF0183
:10081000695F7F4FA901475051090796411551055E
:1008200039F1079709F587818093F10038962850B0
:10083000310981E09091E8009E779093E80030CFF5
:100840009091F20081E09830A9F380E0F3CFFD01B0
:100850009B0181E0EFCF81E04830510509F080E055
:10086000FD0120E030E0E6CFFB019A0181E0E2CF1C
:1008700021E0089709F020E0822FFB0120E030E022
:10088000D9CF41E0089709F040E0842FD3CF2091E1
:100890004B0230914C022617370758F0611571054D
:1008A00009F043C02091E8002E772093E80020E073
:1008B00030E0AC0180E02115310521F581110FC038
:1008C0002EC08530A1F18091E80083FD32C0809177
:1008D000E80082FD24C08091E80080FDB2C08EB3A4
:1008E0008111EFCF82E00895853009F18091E80011
:1008F00083FD1FC08091E80082FD11C08091E80057
:1009000080FD19C08EB38111EFCFECCF8EB3882359
:1009100049F3853061F08091E80083FD0AC0809141
:10092000E80082FFF3CF80E008959B01C2CF83E00F
:10093000089581E008958091F20090E0883091055B
:1009400008F09DC0FA0164916093F1003196D901DD
:100950001197BC016F5F7F4F109709F47DC068301D
:10096000710509F475C0E491E093F100FA01329643
:10097000D9011297BC016E5F7F4F109709F46CC0CC
:100980006830710509F464C0E491E093F100FA0164
:100990003396D9011397BC016D5F7F4F109709F40F
:1009A0005BC06830710509F453C0E491E093F10035
:1009B000FA013496D9011497BC016C5F7F4F1097F0
:1009C00009F44AC06830710509F442C0E491E0932B
:1009D000F100FA013596D9011597BC016B5F7F4F85
:1009E000109709F439C06830710591F1E491E093F2
:1009F000F100FA013696D9011697BC016A5F7F4F64
:100A0000109751F16830710519F1E491E093F1000C
:100A1000FA013796B901675071090796611571059A
:100A200041F1079711F5E491E093F100485F5F4FC2
:100A30002850310981E09091E8009E779093E8007A
:100A40003ACF9091F20081E09830A9F380E0F3CFA3
:100A5000AF019D0181E0EFCF81E06830710509F0C1
:100A600080E0AF0120E030E0E6CFAF019B0181E004
:100A7000E2CF21E0089709F020E0822FF2CF61E079
:100A8000089709F060E0862FD6CF853098F58093DF
:100A9000E900982F242F762F50E021FF19C03091C4
:100AA000EB003E7F3093EB003091ED003D7F3093C3
:100AB000ED003091EB0031603093EB007093EC006F
:100AC0002093ED005093F0002091EE0027FF1BC013
:100AD0009F5F953079F09093E900891781F07091CC
:100AE000EC002091ED005091F00021FDD8CF9F5FE8
:100AF000953089F78F708093E90081E00895242F65
:100B0000762F50E0CACF80E008950F931F93CF93C4
:100B1000DF93062F662379F1EC0110E09881992389
:100B200031F12C81E981FA816B81892F8F708530B9
:100B300058F5223030F146E056E0E930F10560F03A
:100B400028E030E040E04F5F220F331F2E173F07B1
:100B5000D0F34295407F452B991F9927991F6295A5
:100B6000660F660F607C692B90DF882369F01F5F3A
:100B700025961013D3CF81E0DF91CF911F910F9174
:100B8000089542E052E0D9CF80E0DF91CF911F91EC
:100B90000F9108958091450287FF04C010C08EB365
:100BA000882349F08091E80080FFF9CF8091E80028
:100BB0008E778093E80008958EB38823E1F38091C7
:100BC000E80082FFF9CF8091E8008B778093E800FE
:100BD00008952091E4003091E50045E68091EC0015
:100BE00080FF1BC08091E80080FD1BC08EB388236E
:100BF000D1F08530D1F08091EB0085FD18C0809157
:100C0000E4009091E5002817390741F3415089F03D
:100C10009C018091EC0080FDE5CF8091E80082FF8F
:100C2000E5CF80E0089582E0089583E0089581E0B3
:100C3000089584E0089540D042D08091D8008F7705
:100C40008093D8008091D80080688093D8008091EC
:100C5000D8008F7D8093D80084E089BD86E089BD6F
:100C600009B400FEFDCF1EBA109241021092430259
:100C70001092420242E060E080E007DF8091E100F4
:100C80008E7F8093E1008091E20081608093E2009A
:100C90008091E20088608093E2008091E0008E7F86
:100CA0008093E0000895E3E6F0E080818E7F80830A
:100CB00081E080934402BFCF1092E2000895109229
:100CC000E10008951F920F920FB60F9211242F93F7
:100CD0003F934F935F936F937F938F939F93AF93C4
:100CE000BF93EF93FF938091E10082FF04C0809156
:100CF000E20082FD82C08091E10080FF04C080910B
:100D0000E20080FD67C08091E10084FF27C08091F0
:100D1000E20084FF23C084E089BD86E089BD09B478
:100D200000FEFDCF8091D8008F7D8093D800809108
:100D3000E1008F7E8093E1008091E2008F7E8093BE
:100D4000E2008091E20081608093E20080914102A4
:100D5000882309F459C084E08EBB19D28091E10048
:100D600083FF04C08091E20083FD11C0FF91EF91E9
:100D7000BF91AF919F918F917F916F915F914F91B3
:100D80003F912F910F900FBE0F901F90189580915B
:100D9000E100877F8093E10082E08EBB10924102E8
:100DA0008091E1008E7F8093E1008091E2008E7F50
:100DB0008093E2008091E20080618093E20042E053
:100DC00060E080E062DE8091F00088608093F00057
:100DD000DED1CCCF8091E2008E7F8093E2008091C3
:100DE000E20080618093E2008091D800806280936D
:100DF000D80019BC1EBACBD186CF8091E1008B7F81
:100E00008093E100C4D177CF8091E30087FF03C0D6
:100E100083E08EBBA2CF81E08EBB9FCF1F920F924B
:100E20000FB60F9211242F933F934F935F936F93BD
:100E30007F938F939F93AF93BF93CF93EF93FF9342
:100E4000C091E900CF708091EC001092E900809190
:100E5000F000877F8093F00078941BD01092E90017
:100E60008091F00088608093F000C093E900FF91CA
:100E7000EF91CF91BF91AF919F918F917F916F91A2
:100E80005F914F913F912F910F900FBE0F901F9048
:100E900018951F93CF93DF93CDB7DEB7AA970FB600
:100EA000F894DEBF0FBECDBF8091F1008093450264
:100EB0008091F100809346028091F1008093470277
:100EC0008091F100809348028091F1008093490263
:100ED0008091F10080934A028091F10080934B024F
:100EE0008091F10080934C029DDA8091E80083FFAD
:100EF00010C090914502809146028530A1F108F41E
:100F000076C08830F1F0893009F4ADC0863009F43C
:100F100049C08091E80083FF0AC08091E800877F84
:100F20008093E8008091EB0080628093EB00AA96AA
:100F30000FB6F894DEBF0FBECDBFDF91CF911F91EA
:100F40000895903831F78091E800877F8093E8001A
:100F5000809141028093F1008091E8008E77809328
:100F6000E80018DED6CF9111D4CF109147021F7739
:100F70008091E3008078812B8093E3008091E800EA
:100F8000877F8093E80006DE8091E80080FFFCCF39
:100F90008091E30080688093E3001111B1C082E08A
:100FA0008EBBB7CF9058923008F0B3CF80914702F4
:100FB000909148028C3D23E0920709F4A4C0AE0151
:100FC0004F5F5F4F6091490219DB009709F4A1CF91
:100FD0002091E800277F2093E800BC0189819A8155
:100FE00056DC8091E8008B778093E80092CF8130C7
:100FF00029F008F450C0833009F08BCF992309F40D
:101000006BC0923009F085CF90914702911122C0B8
:10101000209149022F7009F47CCF2093E900909130
:10102000EB0090FF17C0833009F4ABC08091EB0058
:1010300080618093EB0081E090E001C0880F2A95E9
:10104000EAF78093EA001092EA008091EB00886052
:101050008093EB001092E9008091E800877F8093F5
:10106000E80098DD56CF911154CF8091470282302D
:1010700008F04FCF9091E800977F9093E80080931D
:10108000410288DD80914102882309F470C084E028
:101090008EBBC5D93ECF903859F1923809F039CF7F
:1010A000809149028F708093E9009091EB0095FB4D
:1010B000992790F91092E9008091E800877F80934A
:1010C000E8009093F1001092F1008091E8008E7793
:1010D0008093E8005FDD1DCF90914702913009F0C9
:1010E00018CF91E0833009F090E090934302B2CFA3
:1010F00090914202809143028823F1F29260DCCF0A
:1011000083E08EBB06CF83E08A838AE289835FB760
:10111000F894DE01139620E03EE041E207C090E043
:10112000C7968D939D932F5F243181F0E32FF0E0DC
:1011300040935700849120FF03C082958F703F5FDA
:101140008F708A3060F790E0C096EBCF5FBF8091E0
:10115000E800877F8093E8006AE270E0CE010196A4
:101160008BDA8091E8008B778093E800D2CE809173
:10117000E30087FF03C084E08EBB8BCF81E08EBB92
:1011800088CF8091EB0080628093EB0063CF08955D
:10119000CF938EB38823A1F08091E9008F70909156
:1011A000EC0090FD0FC090E0C92FC82B1092E90011
:1011B0009091E80093FD0FC08C2F8F708093E90011
:1011C000CF91089590E8C92FC82B1092E900909113
:1011D000E80093FFF1CF5DDEEFCFCF93DF93EC011B
:1011E000FC0170968BE0DF011D928A95E9F782E0A1
:1011F0008C83898783E08E8761E0CE01019685DC50
:10120000811104C080E0DF91CF91089561E0CE01AB
:1012100006967BDC8823B1F361E0CE010B96DF916B
:10122000CF9173CC0F931F93CF93DF931F92CDB7C2
:10123000DEB72EB3243039F082E00F90DF91CF91EA
:101240001F910F910895FC0104891589268937891A
:10125000012B022B032B81F381818F708093E90096
:101260008091E80085FF04C06093F10080E0E5CF45
:101270008091E8008E778093E8006983AADC698119
:10128000882391F3DACF2EB3243011F082E0089551
:10129000FC014489558966897789452B462B472B64
:1012A000A9F381818F708093E9008091F2008823F7
:1012B00049F09091E8008091E8008E778093E800F3
:1012C00095FF02C080E0089584DC8111E0CF809119
:1012D000E8008E778093E800F5CF2EB3243009F034
:1012E0000895FC014489558966897789452B462BE9
:1012F000472BB1F321812F702093E9002091E80062
:1013000020FFEECFC0CF2EB3243019F5FC01448965
:10131000558966897789452B462B472BD1F08681E5
:101320008F708093E9008091E80082FF12C0809165
:10133000F200882389F02091F10030E08091F200E2
:10134000811110C08091E8008B778093E800C9017B
:1013500008958FEF9FEF08952FEF3FEF8091F200F8
:10136000882381F3C901089508950F931F93CF93A4
:10137000DF9300D0CDB7DEB72091E80023FF0AC08D
:10138000FC01208130E04091490250914A0242170D
:10139000530739F00F900F90DF91CF911F910F916C
:1013A000089520914602213209F457C0E0F022321C
:1013B00009F48EC0233271F720914502213251F792
:1013C0002091E800277F2093E80089839A83E2DB5D
:1013D0006091470289819A810F900F90DF91CF91A0
:1013E0001F910F91C1CF2032A9F6209145022132E1
:1013F00089F62091E800277F2093E80003C02EB3F0
:10140000222341F22091E80022FFF9CF5091F10010
:101410004091F1003091F1002091F100FC01548BDA
:10142000458B368B278B2091F100208F2091F10086
:10143000218F2091F100228F2091E8002B772093BB
:10144000E80089839A83A6DB89819A810F900F90A7
:10145000DF91CF911F910F9134C820914502213A1D
:1014600009F098CF2091E800277F2093E800209191
:10147000E80020FFFCCFFC01448955896689778903
:101480004093F100052F162F272F33270093F100EB
:101490008B01222733270093F100472F552766271A
:1014A00077274093F100208D2093F100218D209328
:1014B000F100828D8093F1008091E8008E77809317
:1014C000E8000F900F90DF91CF911F910F9162CBA9
:1014D00020914502213209F05DCF2091E800277F5D
:1014E0002093E80089839A8355DB2091470230914D
:1014F000480289819A81FC01318B208B0F900F90DB
:10150000DF91CF911F910F915CC8A1E21A2EAA1B07
:10151000BB1BFD010DC0AA1FBB1FEE1FFF1FA217A3
:10152000B307E407F50720F0A21BB30BE40BF50BA0
:10153000661F771F881F991F1A9469F76095709529
:10154000809590959B01AC01BD01CF010895F89461
:02155000FFCFCB
:101552000083100000010410000001820800000155
:0C1562000000000000000000000000007D
:00000001FF
